{
  "_format": "hh-sol-artifact-1",
  "contractName": "Roulette",
  "sourceName": "contracts/Roulette.sol",
  "abi": [
    {
      "inputs": [
        {
          "internalType": "address",
          "name": "_airnodeRrp",
          "type": "address"
        }
      ],
      "stateMutability": "nonpayable",
      "type": "constructor"
    },
    {
      "inputs": [],
      "name": "HouseBalanceTooLow",
      "type": "error"
    },
    {
      "inputs": [],
      "name": "NoBet",
      "type": "error"
    },
    {
      "inputs": [],
      "name": "ReturnFailed",
      "type": "error"
    },
    {
      "inputs": [],
      "name": "SpinNotComplete",
      "type": "error"
    },
    {
      "inputs": [],
      "name": "TransferToDeployerWalletFailed",
      "type": "error"
    },
    {
      "inputs": [],
      "name": "TransferToSponsorWalletFailed",
      "type": "error"
    },
    {
      "anonymous": false,
      "inputs": [
        {
          "indexed": true,
          "internalType": "bytes32",
          "name": "requestId",
          "type": "bytes32"
        },
        {
          "indexed": false,
          "internalType": "uint256",
          "name": "response",
          "type": "uint256"
        }
      ],
      "name": "ReceivedUint256",
      "type": "event"
    },
    {
      "anonymous": false,
      "inputs": [
        {
          "indexed": false,
          "internalType": "bytes32",
          "name": "requestId",
          "type": "bytes32"
        }
      ],
      "name": "RequestedUint256",
      "type": "event"
    },
    {
      "anonymous": false,
      "inputs": [
        {
          "indexed": true,
          "internalType": "bytes32",
          "name": "requestId",
          "type": "bytes32"
        },
        {
          "indexed": true,
          "internalType": "uint256",
          "name": "spinNumber",
          "type": "uint256"
        },
        {
          "indexed": false,
          "internalType": "uint256",
          "name": "qrngResult",
          "type": "uint256"
        }
      ],
      "name": "SpinComplete",
      "type": "event"
    },
    {
      "anonymous": false,
      "inputs": [
        {
          "indexed": true,
          "internalType": "uint256",
          "name": "spinNumber",
          "type": "uint256"
        },
        {
          "indexed": false,
          "internalType": "uint256",
          "name": "winningNumber",
          "type": "uint256"
        }
      ],
      "name": "WinningNumber",
      "type": "event"
    },
    {
      "inputs": [],
      "name": "MIN_BET",
      "outputs": [
        {
          "internalType": "uint256",
          "name": "",
          "type": "uint256"
        }
      ],
      "stateMutability": "view",
      "type": "function"
    },
    {
      "inputs": [],
      "name": "airnodeRrp",
      "outputs": [
        {
          "internalType": "contract IAirnodeRrpV0",
          "name": "",
          "type": "address"
        }
      ],
      "stateMutability": "view",
      "type": "function"
    },
    {
      "inputs": [
        {
          "internalType": "bool",
          "name": "_isBlack",
          "type": "bool"
        }
      ],
      "name": "betColor",
      "outputs": [
        {
          "internalType": "uint256",
          "name": "",
          "type": "uint256"
        }
      ],
      "stateMutability": "payable",
      "type": "function"
    },
    {
      "inputs": [
        {
          "internalType": "bool",
          "name": "_isEven",
          "type": "bool"
        }
      ],
      "name": "betEvenOdd",
      "outputs": [
        {
          "internalType": "uint256",
          "name": "",
          "type": "uint256"
        }
      ],
      "stateMutability": "payable",
      "type": "function"
    },
    {
      "inputs": [
        {
          "internalType": "uint256",
          "name": "_halfBet",
          "type": "uint256"
        }
      ],
      "name": "betHalf",
      "outputs": [
        {
          "internalType": "uint256",
          "name": "",
          "type": "uint256"
        }
      ],
      "stateMutability": "payable",
      "type": "function"
    },
    {
      "inputs": [
        {
          "internalType": "uint256",
          "name": "_numberBet",
          "type": "uint256"
        }
      ],
      "name": "betNumber",
      "outputs": [
        {
          "internalType": "uint256",
          "name": "",
          "type": "uint256"
        }
      ],
      "stateMutability": "payable",
      "type": "function"
    },
    {
      "inputs": [
        {
          "internalType": "uint256",
          "name": "_oneThirdBet",
          "type": "uint256"
        }
      ],
      "name": "betOneThird",
      "outputs": [
        {
          "internalType": "uint256",
          "name": "",
          "type": "uint256"
        }
      ],
      "stateMutability": "payable",
      "type": "function"
    },
    {
      "inputs": [
        {
          "internalType": "uint256",
          "name": "",
          "type": "uint256"
        }
      ],
      "name": "blackSpin",
      "outputs": [
        {
          "internalType": "bool",
          "name": "",
          "type": "bool"
        }
      ],
      "stateMutability": "view",
      "type": "function"
    },
    {
      "inputs": [
        {
          "internalType": "bytes32",
          "name": "requestId",
          "type": "bytes32"
        },
        {
          "internalType": "bytes",
          "name": "data",
          "type": "bytes"
        }
      ],
      "name": "fulfillUint256",
      "outputs": [],
      "stateMutability": "nonpayable",
      "type": "function"
    },
    {
      "inputs": [
        {
          "internalType": "bytes32",
          "name": "",
          "type": "bytes32"
        }
      ],
      "name": "requestIdToResult",
      "outputs": [
        {
          "internalType": "uint256",
          "name": "",
          "type": "uint256"
        }
      ],
      "stateMutability": "view",
      "type": "function"
    },
    {
      "inputs": [
        {
          "internalType": "bytes32",
          "name": "",
          "type": "bytes32"
        }
      ],
      "name": "requestIdToSpinCount",
      "outputs": [
        {
          "internalType": "uint256",
          "name": "",
          "type": "uint256"
        }
      ],
      "stateMutability": "view",
      "type": "function"
    },
    {
      "inputs": [
        {
          "internalType": "address",
          "name": "_airnode",
          "type": "address"
        },
        {
          "internalType": "bytes32",
          "name": "_endpointId",
          "type": "bytes32"
        },
        {
          "internalType": "address payable",
          "name": "_sponsorWallet",
          "type": "address"
        }
      ],
      "name": "setRequestParameters",
      "outputs": [],
      "stateMutability": "nonpayable",
      "type": "function"
    },
    {
      "inputs": [
        {
          "internalType": "uint256",
          "name": "",
          "type": "uint256"
        }
      ],
      "name": "spinIsComplete",
      "outputs": [
        {
          "internalType": "bool",
          "name": "",
          "type": "bool"
        }
      ],
      "stateMutability": "view",
      "type": "function"
    },
    {
      "inputs": [
        {
          "internalType": "uint256",
          "name": "",
          "type": "uint256"
        }
      ],
      "name": "spinResult",
      "outputs": [
        {
          "internalType": "uint256",
          "name": "",
          "type": "uint256"
        }
      ],
      "stateMutability": "view",
      "type": "function"
    },
    {
      "inputs": [
        {
          "internalType": "uint256",
          "name": "",
          "type": "uint256"
        }
      ],
      "name": "spinToBetType",
      "outputs": [
        {
          "internalType": "enum Roulette.BetType",
          "name": "",
          "type": "uint8"
        }
      ],
      "stateMutability": "view",
      "type": "function"
    },
    {
      "inputs": [
        {
          "internalType": "uint256",
          "name": "",
          "type": "uint256"
        }
      ],
      "name": "spinToUser",
      "outputs": [
        {
          "internalType": "address",
          "name": "",
          "type": "address"
        }
      ],
      "stateMutability": "view",
      "type": "function"
    },
    {
      "inputs": [],
      "name": "topUpSponsorWallet",
      "outputs": [],
      "stateMutability": "payable",
      "type": "function"
    },
    {
      "inputs": [
        {
          "internalType": "address",
          "name": "",
          "type": "address"
        }
      ],
      "name": "userBetAColor",
      "outputs": [
        {
          "internalType": "bool",
          "name": "",
          "type": "bool"
        }
      ],
      "stateMutability": "view",
      "type": "function"
    },
    {
      "inputs": [
        {
          "internalType": "address",
          "name": "",
          "type": "address"
        }
      ],
      "name": "userBetANumber",
      "outputs": [
        {
          "internalType": "bool",
          "name": "",
          "type": "bool"
        }
      ],
      "stateMutability": "view",
      "type": "function"
    },
    {
      "inputs": [
        {
          "internalType": "address",
          "name": "",
          "type": "address"
        }
      ],
      "name": "userBetEvenOdd",
      "outputs": [
        {
          "internalType": "bool",
          "name": "",
          "type": "bool"
        }
      ],
      "stateMutability": "view",
      "type": "function"
    },
    {
      "inputs": [
        {
          "internalType": "address",
          "name": "",
          "type": "address"
        }
      ],
      "name": "userBetHalf",
      "outputs": [
        {
          "internalType": "bool",
          "name": "",
          "type": "bool"
        }
      ],
      "stateMutability": "view",
      "type": "function"
    },
    {
      "inputs": [
        {
          "internalType": "address",
          "name": "",
          "type": "address"
        }
      ],
      "name": "userBetThird",
      "outputs": [
        {
          "internalType": "bool",
          "name": "",
          "type": "bool"
        }
      ],
      "stateMutability": "view",
      "type": "function"
    },
    {
      "inputs": [
        {
          "internalType": "address",
          "name": "",
          "type": "address"
        }
      ],
      "name": "userToColor",
      "outputs": [
        {
          "internalType": "bool",
          "name": "",
          "type": "bool"
        }
      ],
      "stateMutability": "view",
      "type": "function"
    },
    {
      "inputs": [
        {
          "internalType": "address",
          "name": "",
          "type": "address"
        }
      ],
      "name": "userToCurrentBet",
      "outputs": [
        {
          "internalType": "uint256",
          "name": "",
          "type": "uint256"
        }
      ],
      "stateMutability": "view",
      "type": "function"
    },
    {
      "inputs": [
        {
          "internalType": "address",
          "name": "",
          "type": "address"
        }
      ],
      "name": "userToEven",
      "outputs": [
        {
          "internalType": "bool",
          "name": "",
          "type": "bool"
        }
      ],
      "stateMutability": "view",
      "type": "function"
    },
    {
      "inputs": [
        {
          "internalType": "address",
          "name": "",
          "type": "address"
        }
      ],
      "name": "userToHalf",
      "outputs": [
        {
          "internalType": "uint256",
          "name": "",
          "type": "uint256"
        }
      ],
      "stateMutability": "view",
      "type": "function"
    },
    {
      "inputs": [
        {
          "internalType": "address",
          "name": "",
          "type": "address"
        }
      ],
      "name": "userToNumber",
      "outputs": [
        {
          "internalType": "uint256",
          "name": "",
          "type": "uint256"
        }
      ],
      "stateMutability": "view",
      "type": "function"
    },
    {
      "inputs": [
        {
          "internalType": "address",
          "name": "",
          "type": "address"
        }
      ],
      "name": "userToSpinCount",
      "outputs": [
        {
          "internalType": "uint256",
          "name": "",
          "type": "uint256"
        }
      ],
      "stateMutability": "view",
      "type": "function"
    },
    {
      "inputs": [
        {
          "internalType": "address",
          "name": "",
          "type": "address"
        }
      ],
      "name": "userToThird",
      "outputs": [
        {
          "internalType": "uint256",
          "name": "",
          "type": "uint256"
        }
      ],
      "stateMutability": "view",
      "type": "function"
    },
    {
      "stateMutability": "payable",
      "type": "receive"
    }
  ],
  "bytecode": "0x60c06040523480156200001157600080fd5b5060405162004bef38038062004bef8339818101604052810190620000379190620004ae565b808073ffffffffffffffffffffffffffffffffffffffff1660808173ffffffffffffffffffffffffffffffffffffffff16815250508073ffffffffffffffffffffffffffffffffffffffff1663addf027c3060016040518363ffffffff1660e01b8152600401620000aa9291906200050e565b600060405180830381600087803b158015620000c557600080fd5b505af1158015620000da573d6000803e3d6000fd5b50505050503373ffffffffffffffffffffffffffffffffffffffff1660a08173ffffffffffffffffffffffffffffffffffffffff16815250506001601360006002815260200190815260200160002060006101000a81548160ff0219169083151502179055506001601360006004815260200190815260200160002060006101000a81548160ff0219169083151502179055506001601360006006815260200190815260200160002060006101000a81548160ff0219169083151502179055506001601360006008815260200190815260200160002060006101000a81548160ff021916908315150217905550600160136000600a815260200190815260200160002060006101000a81548160ff021916908315150217905550600160136000600b815260200190815260200160002060006101000a81548160ff021916908315150217905550600160136000600d815260200190815260200160002060006101000a81548160ff021916908315150217905550600160136000600f815260200190815260200160002060006101000a81548160ff0219169083151502179055506001601360006011815260200190815260200160002060006101000a81548160ff0219169083151502179055506001601360006014815260200190815260200160002060006101000a81548160ff0219169083151502179055506001601360006016815260200190815260200160002060006101000a81548160ff0219169083151502179055506001601360006018815260200190815260200160002060006101000a81548160ff021916908315150217905550600160136000601a815260200190815260200160002060006101000a81548160ff021916908315150217905550600160136000601c815260200190815260200160002060006101000a81548160ff021916908315150217905550600160136000601d815260200190815260200160002060006101000a81548160ff021916908315150217905550600160136000601f815260200190815260200160002060006101000a81548160ff0219169083151502179055506001601360006021815260200190815260200160002060006101000a81548160ff0219169083151502179055506001601360006023815260200190815260200160002060006101000a81548160ff021916908315150217905550506200053b565b600080fd5b600073ffffffffffffffffffffffffffffffffffffffff82169050919050565b6000620004768262000449565b9050919050565b620004888162000469565b81146200049457600080fd5b50565b600081519050620004a8816200047d565b92915050565b600060208284031215620004c757620004c662000444565b5b6000620004d78482850162000497565b91505092915050565b620004eb8162000469565b82525050565b60008115159050919050565b6200050881620004f1565b82525050565b6000604082019050620005256000830185620004e0565b620005346020830184620004fd565b9392505050565b60805160a0516146796200057660003960008181611a6a0152613993015260008181610f680152818161177c0152611d7201526146796000f3fe6080604052600436106101c65760003560e01c8063547300c6116100f7578063a3913b9011610095578063ca5e6aa411610064578063ca5e6aa414610707578063cc50292714610744578063e7304e2c14610781578063fa967942146107be576101cd565b8063a3913b9014610613578063a417dead14610650578063a7b3fdcf1461068d578063c59d5088146106ca576101cd565b806371bab666116100d157806371bab6661461055257806375e65e891461057d5780637bdf2525146105ad578063a1aafbc2146105d6576101cd565b8063547300c6146104ba5780636393a67e146104ea5780636540742f14610527576101cd565b80633718d90a116101645780633d2f1b611161013e5780633d2f1b61146103c657806345e9e023146104035780634c6995e6146104405780634fa5a5021461047d576101cd565b80633718d90a14610330578063396497ba146103595780633c1c38ff14610396576101cd565b80631c58b5b2116101a05780631c58b5b21461027c5780632bb404d3146102865780632d7486d6146102b65780633064ca51146102f3576101cd565b80630c9ac97d146101d257806317f1c4ee1461020f578063197cde781461024c576101cd565b366101cd57005b600080fd5b3480156101de57600080fd5b506101f960048036038101906101f49190613b0a565b6107fb565b6040516102069190613b50565b60405180910390f35b34801561021b57600080fd5b5061023660048036038101906102319190613b97565b610813565b6040516102439190613bdf565b60405180910390f35b61026660048036038101906102619190613b97565b610833565b6040516102739190613b50565b60405180910390f35b610284610b20565b005b6102a0600480360381019061029b9190613b97565b610c2b565b6040516102ad9190613b50565b60405180910390f35b3480156102c257600080fd5b506102dd60048036038101906102d89190613b0a565b610f2e565b6040516102ea9190613bdf565b60405180910390f35b3480156102ff57600080fd5b5061031a60048036038101906103159190613b97565b610f4e565b6040516103279190613b50565b60405180910390f35b34801561033c57600080fd5b5061035760048036038101906103529190613c95565b610f66565b005b34801561036557600080fd5b50610380600480360381019061037b9190613b97565b6110f3565b60405161038d9190613d04565b60405180910390f35b6103b060048036038101906103ab9190613d4b565b611126565b6040516103bd9190613b50565b60405180910390f35b3480156103d257600080fd5b506103ed60048036038101906103e89190613b0a565b6113f0565b6040516103fa9190613bdf565b60405180910390f35b34801561040f57600080fd5b5061042a60048036038101906104259190613d78565b611410565b6040516104379190613b50565b60405180910390f35b34801561044c57600080fd5b5061046760048036038101906104629190613b0a565b611428565b6040516104749190613b50565b60405180910390f35b34801561048957600080fd5b506104a4600480360381019061049f9190613b97565b611440565b6040516104b19190613e1c565b60405180910390f35b6104d460048036038101906104cf9190613b97565b611460565b6040516104e19190613b50565b60405180910390f35b3480156104f657600080fd5b50610511600480360381019061050c9190613d78565b611758565b60405161051e9190613b50565b60405180910390f35b34801561053357600080fd5b5061053c611770565b6040516105499190613b50565b60405180910390f35b34801561055e57600080fd5b5061056761177a565b6040516105749190613e96565b60405180910390f35b61059760048036038101906105929190613d4b565b61179e565b6040516105a49190613b50565b60405180910390f35b3480156105b957600080fd5b506105d460048036038101906105cf9190613eef565b611a68565b005b3480156105e257600080fd5b506105fd60048036038101906105f89190613b97565b611b84565b60405161060a9190613bdf565b60405180910390f35b34801561061f57600080fd5b5061063a60048036038101906106359190613b0a565b611ba4565b6040516106479190613bdf565b60405180910390f35b34801561065c57600080fd5b5061067760048036038101906106729190613b0a565b611bc4565b6040516106849190613bdf565b60405180910390f35b34801561069957600080fd5b506106b460048036038101906106af9190613b0a565b611be4565b6040516106c19190613b50565b60405180910390f35b3480156106d657600080fd5b506106f160048036038101906106ec9190613b0a565b611bfc565b6040516106fe9190613bdf565b60405180910390f35b34801561071357600080fd5b5061072e60048036038101906107299190613b0a565b611c1c565b60405161073b9190613bdf565b60405180910390f35b34801561075057600080fd5b5061076b60048036038101906107669190613b0a565b611c3c565b6040516107789190613b50565b60405180910390f35b34801561078d57600080fd5b506107a860048036038101906107a39190613b0a565b611c54565b6040516107b59190613b50565b60405180910390f35b3480156107ca57600080fd5b506107e560048036038101906107e09190613b0a565b611c6c565b6040516107f29190613bdf565b60405180910390f35b600d6020528060005260406000206000915090505481565b60156020528060005260406000206000915054906101000a900460ff1681565b600060236509184e72a000341015610880576040517f08c379a000000000000000000000000000000000000000000000000000000000815260040161087790613f9f565b60405180910390fd5b803461088c9190613fee565b4710156108c5576040517faca1907800000000000000000000000000000000000000000000000000000000815260040160405180910390fd5b60008081546001019190508190555034600b60003373ffffffffffffffffffffffffffffffffffffffff1673ffffffffffffffffffffffffffffffffffffffff16815260200190815260200160002081905550600054600c60003373ffffffffffffffffffffffffffffffffffffffff1673ffffffffffffffffffffffffffffffffffffffff1681526020019081526020016000208190555033601760008054815260200190815260200160002060006101000a81548173ffffffffffffffffffffffffffffffffffffffff021916908373ffffffffffffffffffffffffffffffffffffffff160217905550602583106109f4576040517f08c379a00000000000000000000000000000000000000000000000000000000081526004016109eb9061407c565b60405180910390fd5b82600d60003373ffffffffffffffffffffffffffffffffffffffff1673ffffffffffffffffffffffffffffffffffffffff168152602001908152602001600020819055506001600560003373ffffffffffffffffffffffffffffffffffffffff1673ffffffffffffffffffffffffffffffffffffffff16815260200190815260200160002060006101000a81548160ff0219169083151502179055506001601660008054815260200190815260200160002060006101000a81548160ff02191690836004811115610ac857610ac7613da5565b5b0217905550610ad8600054611c8c565b600c60003373ffffffffffffffffffffffffffffffffffffffff1673ffffffffffffffffffffffffffffffffffffffff16815260200190815260200160002054915050919050565b60003403610b63576040517f08c379a0000000000000000000000000000000000000000000000000000000008152600401610b5a906140e8565b60405180910390fd5b6000600260009054906101000a900473ffffffffffffffffffffffffffffffffffffffff1673ffffffffffffffffffffffffffffffffffffffff1634604051610bab90614139565b60006040518083038185875af1925050503d8060008114610be8576040519150601f19603f3d011682016040523d82523d6000602084013e610bed565b606091505b5050905080610c28576040517fbe27be9700000000000000000000000000000000000000000000000000000000815260040160405180910390fd5b50565b600060036509184e72a000341015610c78576040517f08c379a0000000000000000000000000000000000000000000000000000000008152600401610c6f90613f9f565b60405180910390fd5b8034610c849190613fee565b471015610cbd576040517faca1907800000000000000000000000000000000000000000000000000000000815260040160405180910390fd5b60008081546001019190508190555034600b60003373ffffffffffffffffffffffffffffffffffffffff1673ffffffffffffffffffffffffffffffffffffffff16815260200190815260200160002081905550600054600c60003373ffffffffffffffffffffffffffffffffffffffff1673ffffffffffffffffffffffffffffffffffffffff1681526020019081526020016000208190555033601760008054815260200190815260200160002060006101000a81548173ffffffffffffffffffffffffffffffffffffffff021916908373ffffffffffffffffffffffffffffffffffffffff1602179055506001831480610db85750600283145b80610dc35750600383145b610e02576040517f08c379a0000000000000000000000000000000000000000000000000000000008152600401610df99061419a565b60405180910390fd5b82600e60003373ffffffffffffffffffffffffffffffffffffffff1673ffffffffffffffffffffffffffffffffffffffff168152602001908152602001600020819055506001600760003373ffffffffffffffffffffffffffffffffffffffff1673ffffffffffffffffffffffffffffffffffffffff16815260200190815260200160002060006101000a81548160ff0219169083151502179055506003601660008054815260200190815260200160002060006101000a81548160ff02191690836004811115610ed657610ed5613da5565b5b0217905550610ee6600054611c8c565b600c60003373ffffffffffffffffffffffffffffffffffffffff1673ffffffffffffffffffffffffffffffffffffffff16815260200190815260200160002054915050919050565b60076020528060005260406000206000915054906101000a900460ff1681565b60186020528060005260406000206000915090505481565b7f000000000000000000000000000000000000000000000000000000000000000073ffffffffffffffffffffffffffffffffffffffff163373ffffffffffffffffffffffffffffffffffffffff1614610ff4576040517f08c379a0000000000000000000000000000000000000000000000000000000008152600401610feb90614206565b60405180910390fd5b6010600084815260200190815260200160002060009054906101000a900460ff16611054576040517f08c379a000000000000000000000000000000000000000000000000000000000815260040161104b90614272565b60405180910390fd5b60006010600085815260200190815260200160002060006101000a81548160ff021916908315150217905550600082828101906110919190613b97565b90508060126000868152602001908152602001600020819055506110b58482611ee4565b837f1ca47bacd454c26163f84eff4aa514e291ba9fa67ad6029e39567c122bbed30f826040516110e59190613b50565b60405180910390a250505050565b60176020528060005260406000206000915054906101000a900473ffffffffffffffffffffffffffffffffffffffff1681565b600060026509184e72a000341015611173576040517f08c379a000000000000000000000000000000000000000000000000000000000815260040161116a90613f9f565b60405180910390fd5b803461117f9190613fee565b4710156111b8576040517faca1907800000000000000000000000000000000000000000000000000000000815260040160405180910390fd5b60008081546001019190508190555034600b60003373ffffffffffffffffffffffffffffffffffffffff1673ffffffffffffffffffffffffffffffffffffffff16815260200190815260200160002081905550600054600c60003373ffffffffffffffffffffffffffffffffffffffff1673ffffffffffffffffffffffffffffffffffffffff1681526020019081526020016000208190555033601760008054815260200190815260200160002060006101000a81548173ffffffffffffffffffffffffffffffffffffffff021916908373ffffffffffffffffffffffffffffffffffffffff1602179055506001600660003373ffffffffffffffffffffffffffffffffffffffff1673ffffffffffffffffffffffffffffffffffffffff16815260200190815260200160002060006101000a81548160ff021916908315150217905550821561135f576001600a60003373ffffffffffffffffffffffffffffffffffffffff1673ffffffffffffffffffffffffffffffffffffffff16815260200190815260200160002060006101000a81548160ff021916908315150217905550611360565b5b6002601660008054815260200190815260200160002060006101000a81548160ff0219169083600481111561139857611397613da5565b5b02179055506113a8600054611c8c565b600c60003373ffffffffffffffffffffffffffffffffffffffff1673ffffffffffffffffffffffffffffffffffffffff16815260200190815260200160002054915050919050565b60096020528060005260406000206000915054906101000a900460ff1681565b60126020528060005260406000206000915090505481565b600b6020528060005260406000206000915090505481565b60166020528060005260406000206000915054906101000a900460ff1681565b600060026509184e72a0003410156114ad576040517f08c379a00000000000000000000000000000000000000000000000000000000081526004016114a490613f9f565b60405180910390fd5b80346114b99190613fee565b4710156114f2576040517faca1907800000000000000000000000000000000000000000000000000000000815260040160405180910390fd5b60008081546001019190508190555034600b60003373ffffffffffffffffffffffffffffffffffffffff1673ffffffffffffffffffffffffffffffffffffffff16815260200190815260200160002081905550600054600c60003373ffffffffffffffffffffffffffffffffffffffff1673ffffffffffffffffffffffffffffffffffffffff1681526020019081526020016000208190555033601760008054815260200190815260200160002060006101000a81548173ffffffffffffffffffffffffffffffffffffffff021916908373ffffffffffffffffffffffffffffffffffffffff16021790555060018314806115ed5750600283145b61162c576040517f08c379a0000000000000000000000000000000000000000000000000000000008152600401611623906142de565b60405180910390fd5b82600f60003373ffffffffffffffffffffffffffffffffffffffff1673ffffffffffffffffffffffffffffffffffffffff168152602001908152602001600020819055506001600860003373ffffffffffffffffffffffffffffffffffffffff1673ffffffffffffffffffffffffffffffffffffffff16815260200190815260200160002060006101000a81548160ff0219169083151502179055506004601660008054815260200190815260200160002060006101000a81548160ff02191690836004811115611700576116ff613da5565b5b0217905550611710600054611c8c565b600c60003373ffffffffffffffffffffffffffffffffffffffff1673ffffffffffffffffffffffffffffffffffffffff16815260200190815260200160002054915050919050565b60116020528060005260406000206000915090505481565b6509184e72a00081565b7f000000000000000000000000000000000000000000000000000000000000000081565b600060026509184e72a0003410156117eb576040517f08c379a00000000000000000000000000000000000000000000000000000000081526004016117e290613f9f565b60405180910390fd5b80346117f79190613fee565b471015611830576040517faca1907800000000000000000000000000000000000000000000000000000000815260040160405180910390fd5b60008081546001019190508190555034600b60003373ffffffffffffffffffffffffffffffffffffffff1673ffffffffffffffffffffffffffffffffffffffff16815260200190815260200160002081905550600054600c60003373ffffffffffffffffffffffffffffffffffffffff1673ffffffffffffffffffffffffffffffffffffffff1681526020019081526020016000208190555033601760008054815260200190815260200160002060006101000a81548173ffffffffffffffffffffffffffffffffffffffff021916908373ffffffffffffffffffffffffffffffffffffffff1602179055506001600460003373ffffffffffffffffffffffffffffffffffffffff1673ffffffffffffffffffffffffffffffffffffffff16815260200190815260200160002060006101000a81548160ff02191690831515021790555082156119d7576001600960003373ffffffffffffffffffffffffffffffffffffffff1673ffffffffffffffffffffffffffffffffffffffff16815260200190815260200160002060006101000a81548160ff0219169083151502179055506119d8565b5b6000601660008054815260200190815260200160002060006101000a81548160ff02191690836004811115611a1057611a0f613da5565b5b0217905550611a20600054611c8c565b600c60003373ffffffffffffffffffffffffffffffffffffffff1673ffffffffffffffffffffffffffffffffffffffff16815260200190815260200160002054915050919050565b7f000000000000000000000000000000000000000000000000000000000000000073ffffffffffffffffffffffffffffffffffffffff163373ffffffffffffffffffffffffffffffffffffffff1614611af6576040517f08c379a0000000000000000000000000000000000000000000000000000000008152600401611aed9061434a565b60405180910390fd5b82600160006101000a81548173ffffffffffffffffffffffffffffffffffffffff021916908373ffffffffffffffffffffffffffffffffffffffff1602179055508160038190555080600260006101000a81548173ffffffffffffffffffffffffffffffffffffffff021916908373ffffffffffffffffffffffffffffffffffffffff160217905550505050565b60146020528060005260406000206000915054906101000a900460ff1681565b60046020528060005260406000206000915054906101000a900460ff1681565b600a6020528060005260406000206000915054906101000a900460ff1681565b600f6020528060005260406000206000915090505481565b60086020528060005260406000206000915054906101000a900460ff1681565b60056020528060005260406000206000915054906101000a900460ff1681565b600e6020528060005260406000206000915090505481565b600c6020528060005260406000206000915090505481565b60066020528060005260406000206000915054906101000a900460ff1681565b6015600082815260200190815260200160002060009054906101000a900460ff1615611ced576040517f08c379a0000000000000000000000000000000000000000000000000000000008152600401611ce4906143b6565b60405180910390fd5b600c60003373ffffffffffffffffffffffffffffffffffffffff1673ffffffffffffffffffffffffffffffffffffffff168152602001908152602001600020548114611d6e576040517f08c379a0000000000000000000000000000000000000000000000000000000008152600401611d6590614422565b60405180910390fd5b60007f000000000000000000000000000000000000000000000000000000000000000073ffffffffffffffffffffffffffffffffffffffff16636e6be03f600160009054906101000a900473ffffffffffffffffffffffffffffffffffffffff1660035430600260009054906101000a900473ffffffffffffffffffffffffffffffffffffffff1630633718d90a60e01b6040518763ffffffff1660e01b8152600401611e20969594939291906144e1565b6020604051808303816000875af1158015611e3f573d6000803e3d6000fd5b505050506040513d601f19601f82011682018060405250810190611e63919061456a565b905060016010600083815260200190815260200160002060006101000a81548160ff0219169083151502179055508160116000838152602001908152602001600020819055507fcba2da2f3c0c732a104019a3104936397dde7343964c1518ceb760052e4537b181604051611ed89190614597565b60405180910390a15050565b60006011600084815260200190815260200160002054905060008203611f225760256018600083815260200190815260200160002081905550611f3b565b8160186000838152602001908152602001600020819055505b60016015600083815260200190815260200160002060006101000a81548160ff02191690831515021790555060016004811115611f7b57611f7a613da5565b5b6016600083815260200190815260200160002060009054906101000a900460ff166004811115611fae57611fad613da5565b5b03611fc257611fbc8161217e565b5061212d565b60006004811115611fd657611fd5613da5565b5b6016600083815260200190815260200160002060009054906101000a900460ff16600481111561200957612008613da5565b5b0361201d57612017816124cf565b5061212c565b6002600481111561203157612030613da5565b5b6016600083815260200190815260200160002060009054906101000a900460ff16600481111561206457612063613da5565b5b036120785761207281612956565b5061212b565b60048081111561208b5761208a613da5565b5b6016600083815260200190815260200160002060009054906101000a900460ff1660048111156120be576120bd613da5565b5b036120d2576120cc81612e5e565b5061212a565b600360048111156120e6576120e5613da5565b5b6016600083815260200190815260200160002060009054906101000a900460ff16600481111561211957612118613da5565b5b036121295761212781613248565b505b5b5b5b5b80837f3dd3118a30e529503a1d9e9586c9463dc48e5a36cfc93a9b8db4858f4be227d460186000858152602001908152602001600020546040516121719190613b50565b60405180910390a3505050565b6000806017600084815260200190815260200160002060009054906101000a900473ffffffffffffffffffffffffffffffffffffffff1690506000600b60008373ffffffffffffffffffffffffffffffffffffffff1673ffffffffffffffffffffffffffffffffffffffff1681526020019081526020016000205403612230576040517fd87e9e0400000000000000000000000000000000000000000000000000000000815260040160405180910390fd5b600560008273ffffffffffffffffffffffffffffffffffffffff1673ffffffffffffffffffffffffffffffffffffffff16815260200190815260200160002060009054906101000a900460ff166122b3576040517fd87e9e0400000000000000000000000000000000000000000000000000000000815260040160405180910390fd5b6015600084815260200190815260200160002060009054906101000a900460ff1661230a576040517f89d5c89800000000000000000000000000000000000000000000000000000000815260040160405180910390fd5b60256018600085815260200190815260200160002054036123335761232e816136a7565b612334565b5b6025601860008581526020019081526020016000205461235491906145e1565b600d60008373ffffffffffffffffffffffffffffffffffffffff1673ffffffffffffffffffffffffffffffffffffffff16815260200190815260200160002054036123a9576123a481602361378d565b6123b3565b6123b28161387f565b5b6000600560008373ffffffffffffffffffffffffffffffffffffffff1673ffffffffffffffffffffffffffffffffffffffff16815260200190815260200160002060006101000a81548160ff0219169083151502179055506000600b60008373ffffffffffffffffffffffffffffffffffffffff1673ffffffffffffffffffffffffffffffffffffffff16815260200190815260200160002081905550827f4ce689db32459387452eff62cba6eb76a4a3db5c6904cca78672bfaeee19324a6025601860008781526020019081526020016000205461249291906145e1565b60405161249f9190613b50565b60405180910390a2602560186000858152602001908152602001600020546124c791906145e1565b915050919050565b6000806017600084815260200190815260200160002060009054906101000a900473ffffffffffffffffffffffffffffffffffffffff1690506000600b60008373ffffffffffffffffffffffffffffffffffffffff1673ffffffffffffffffffffffffffffffffffffffff1681526020019081526020016000205403612581576040517fd87e9e0400000000000000000000000000000000000000000000000000000000815260040160405180910390fd5b600460008273ffffffffffffffffffffffffffffffffffffffff1673ffffffffffffffffffffffffffffffffffffffff16815260200190815260200160002060009054906101000a900460ff16612604576040517fd87e9e0400000000000000000000000000000000000000000000000000000000815260040160405180910390fd5b6015600084815260200190815260200160002060009054906101000a900460ff1661265b576040517f89d5c89800000000000000000000000000000000000000000000000000000000815260040160405180910390fd5b60006025601860008681526020019081526020016000205461267d91906145e1565b905060256018600086815260200190815260200160002054036126a8576126a3826136a7565b612839565b600081036126be576126b98261387f565b612838565b6013600082815260200190815260200160002060009054906101000a900460ff16156127155760016014600086815260200190815260200160002060006101000a81548160ff021916908315150217905550612716565b5b600960008373ffffffffffffffffffffffffffffffffffffffff1673ffffffffffffffffffffffffffffffffffffffff16815260200190815260200160002060009054906101000a900460ff16801561278c57506014600085815260200190815260200160002060009054906101000a900460ff165b806128185750600960008373ffffffffffffffffffffffffffffffffffffffff1673ffffffffffffffffffffffffffffffffffffffff16815260200190815260200160002060009054906101000a900460ff1615801561280a57506014600085815260200190815260200160002060009054906101000a900460ff16155b8015612817575060008114155b5b1561282d5761282882600261378d565b612837565b6128368261387f565b5b5b5b6000600460008473ffffffffffffffffffffffffffffffffffffffff1673ffffffffffffffffffffffffffffffffffffffff16815260200190815260200160002060006101000a81548160ff0219169083151502179055506000600b60008473ffffffffffffffffffffffffffffffffffffffff1673ffffffffffffffffffffffffffffffffffffffff16815260200190815260200160002081905550837f4ce689db32459387452eff62cba6eb76a4a3db5c6904cca78672bfaeee19324a6025601860008881526020019081526020016000205461291891906145e1565b6040516129259190613b50565b60405180910390a26025601860008681526020019081526020016000205461294d91906145e1565b92505050919050565b6000806017600084815260200190815260200160002060009054906101000a900473ffffffffffffffffffffffffffffffffffffffff1690506000600b60008373ffffffffffffffffffffffffffffffffffffffff1673ffffffffffffffffffffffffffffffffffffffff1681526020019081526020016000205403612a08576040517fd87e9e0400000000000000000000000000000000000000000000000000000000815260040160405180910390fd5b600660008273ffffffffffffffffffffffffffffffffffffffff1673ffffffffffffffffffffffffffffffffffffffff16815260200190815260200160002060009054906101000a900460ff16612a8b576040517fd87e9e0400000000000000000000000000000000000000000000000000000000815260040160405180910390fd5b6015600084815260200190815260200160002060009054906101000a900460ff16612ae2576040517f89d5c89800000000000000000000000000000000000000000000000000000000815260040160405180910390fd5b600060256018600086815260200190815260200160002054612b0491906145e1565b90506025601860008681526020019081526020016000205403612b2f57612b2a826136a7565b612b30565b5b60008103612c4e576000600260009054906101000a900473ffffffffffffffffffffffffffffffffffffffff1673ffffffffffffffffffffffffffffffffffffffff16600a600b60008673ffffffffffffffffffffffffffffffffffffffff1673ffffffffffffffffffffffffffffffffffffffff16815260200190815260200160002054612bbf9190614612565b604051612bcb90614139565b60006040518083038185875af1925050503d8060008114612c08576040519150601f19603f3d011682016040523d82523d6000602084013e612c0d565b606091505b5050905080612c48576040517fbe27be9700000000000000000000000000000000000000000000000000000000815260040160405180910390fd5b50612d41565b600a60008373ffffffffffffffffffffffffffffffffffffffff1673ffffffffffffffffffffffffffffffffffffffff16815260200190815260200160002060009054906101000a900460ff168015612cb357506000600282612cb191906145e1565b145b80612d215750600a60008373ffffffffffffffffffffffffffffffffffffffff1673ffffffffffffffffffffffffffffffffffffffff16815260200190815260200160002060009054906101000a900460ff16158015612d2057506000600282612d1d91906145e1565b14155b5b15612d3657612d3182600261378d565b612d40565b612d3f8261387f565b5b5b6000600660008473ffffffffffffffffffffffffffffffffffffffff1673ffffffffffffffffffffffffffffffffffffffff16815260200190815260200160002060006101000a81548160ff0219169083151502179055506000600b60008473ffffffffffffffffffffffffffffffffffffffff1673ffffffffffffffffffffffffffffffffffffffff16815260200190815260200160002081905550837f4ce689db32459387452eff62cba6eb76a4a3db5c6904cca78672bfaeee19324a60256018600088815260200190815260200160002054612e2091906145e1565b604051612e2d9190613b50565b60405180910390a260256018600086815260200190815260200160002054612e5591906145e1565b92505050919050565b6000806017600084815260200190815260200160002060009054906101000a900473ffffffffffffffffffffffffffffffffffffffff1690506000600b60008373ffffffffffffffffffffffffffffffffffffffff1673ffffffffffffffffffffffffffffffffffffffff1681526020019081526020016000205403612f10576040517fd87e9e0400000000000000000000000000000000000000000000000000000000815260040160405180910390fd5b600860008273ffffffffffffffffffffffffffffffffffffffff1673ffffffffffffffffffffffffffffffffffffffff16815260200190815260200160002060009054906101000a900460ff16612f93576040517fd87e9e0400000000000000000000000000000000000000000000000000000000815260040160405180910390fd5b6015600084815260200190815260200160002060009054906101000a900460ff16612fea576040517f89d5c89800000000000000000000000000000000000000000000000000000000815260040160405180910390fd5b60006025601860008681526020019081526020016000205461300c91906145e1565b90506000808211801561301f5750601382105b1561302d576001905061303c565b601282111561303b57600290505b5b602560186000878152602001908152602001600020540361306557613060836136a7565b613066565b5b6001600f60008573ffffffffffffffffffffffffffffffffffffffff1673ffffffffffffffffffffffffffffffffffffffff168152602001908152602001600020541480156130b55750600181145b8061310b57506002600f60008573ffffffffffffffffffffffffffffffffffffffff1673ffffffffffffffffffffffffffffffffffffffff1681526020019081526020016000205414801561310a5750600281145b5b156131205761311b83600261378d565b61312a565b6131298361387f565b5b6000600860008573ffffffffffffffffffffffffffffffffffffffff1673ffffffffffffffffffffffffffffffffffffffff16815260200190815260200160002060006101000a81548160ff0219169083151502179055506000600b60008573ffffffffffffffffffffffffffffffffffffffff1673ffffffffffffffffffffffffffffffffffffffff16815260200190815260200160002081905550847f4ce689db32459387452eff62cba6eb76a4a3db5c6904cca78672bfaeee19324a6025601860008981526020019081526020016000205461320991906145e1565b6040516132169190613b50565b60405180910390a26025601860008781526020019081526020016000205461323e91906145e1565b9350505050919050565b6000806017600084815260200190815260200160002060009054906101000a900473ffffffffffffffffffffffffffffffffffffffff1690506000600b60008373ffffffffffffffffffffffffffffffffffffffff1673ffffffffffffffffffffffffffffffffffffffff16815260200190815260200160002054036132fa576040517fd87e9e0400000000000000000000000000000000000000000000000000000000815260040160405180910390fd5b600760008273ffffffffffffffffffffffffffffffffffffffff1673ffffffffffffffffffffffffffffffffffffffff16815260200190815260200160002060009054906101000a900460ff1661337d576040517fd87e9e0400000000000000000000000000000000000000000000000000000000815260040160405180910390fd5b6015600084815260200190815260200160002060009054906101000a900460ff166133d4576040517f89d5c89800000000000000000000000000000000000000000000000000000000815260040160405180910390fd5b6000602560186000868152602001908152602001600020546133f691906145e1565b9050600080821180156134095750600d82105b156134175760019050613445565b600c821180156134275750601982105b156134355760029050613444565b601882111561344357600390505b5b5b602560186000878152602001908152602001600020540361346e57613469836136a7565b61346f565b5b6001600e60008573ffffffffffffffffffffffffffffffffffffffff1673ffffffffffffffffffffffffffffffffffffffff168152602001908152602001600020541480156134be5750600181145b8061351457506002600e60008573ffffffffffffffffffffffffffffffffffffffff1673ffffffffffffffffffffffffffffffffffffffff168152602001908152602001600020541480156135135750600281145b5b8061356a57506003600e60008573ffffffffffffffffffffffffffffffffffffffff1673ffffffffffffffffffffffffffffffffffffffff168152602001908152602001600020541480156135695750600381145b5b1561357f5761357a83600361378d565b613589565b6135888361387f565b5b6000600760008573ffffffffffffffffffffffffffffffffffffffff1673ffffffffffffffffffffffffffffffffffffffff16815260200190815260200160002060006101000a81548160ff0219169083151502179055506000600b60008573ffffffffffffffffffffffffffffffffffffffff1673ffffffffffffffffffffffffffffffffffffffff16815260200190815260200160002081905550847f4ce689db32459387452eff62cba6eb76a4a3db5c6904cca78672bfaeee19324a6025601860008981526020019081526020016000205461366891906145e1565b6040516136759190613b50565b60405180910390a26025601860008781526020019081526020016000205461369d91906145e1565b9350505050919050565b60008173ffffffffffffffffffffffffffffffffffffffff16600b60008473ffffffffffffffffffffffffffffffffffffffff1673ffffffffffffffffffffffffffffffffffffffff1681526020019081526020016000205460405161370c90614139565b60006040518083038185875af1925050503d8060008114613749576040519150601f19603f3d011682016040523d82523d6000602084013e61374e565b606091505b5050905080613789576040517f4ea50a0600000000000000000000000000000000000000000000000000000000815260040160405180910390fd5b5050565b60008273ffffffffffffffffffffffffffffffffffffffff1682600b60008673ffffffffffffffffffffffffffffffffffffffff1673ffffffffffffffffffffffffffffffffffffffff168152602001908152602001600020546137f19190613fee565b6040516137fd90614139565b60006040518083038185875af1925050503d806000811461383a576040519150601f19603f3d011682016040523d82523d6000602084013e61383f565b606091505b505090508061387a576040517faca1907800000000000000000000000000000000000000000000000000000000815260040160405180910390fd5b505050565b6000600260009054906101000a900473ffffffffffffffffffffffffffffffffffffffff1673ffffffffffffffffffffffffffffffffffffffff16600a600b60008573ffffffffffffffffffffffffffffffffffffffff1673ffffffffffffffffffffffffffffffffffffffff168152602001908152602001600020546139069190614612565b60405161391290614139565b60006040518083038185875af1925050503d806000811461394f576040519150601f19603f3d011682016040523d82523d6000602084013e613954565b606091505b505090508061398f576040517fbe27be9700000000000000000000000000000000000000000000000000000000815260040160405180910390fd5b60007f000000000000000000000000000000000000000000000000000000000000000073ffffffffffffffffffffffffffffffffffffffff166032600b60008673ffffffffffffffffffffffffffffffffffffffff1673ffffffffffffffffffffffffffffffffffffffff16815260200190815260200160002054613a149190614612565b604051613a2090614139565b60006040518083038185875af1925050503d8060008114613a5d576040519150601f19603f3d011682016040523d82523d6000602084013e613a62565b606091505b5050905080613a9d576040517f5de0d97400000000000000000000000000000000000000000000000000000000815260040160405180910390fd5b505050565b600080fd5b600080fd5b600073ffffffffffffffffffffffffffffffffffffffff82169050919050565b6000613ad782613aac565b9050919050565b613ae781613acc565b8114613af257600080fd5b50565b600081359050613b0481613ade565b92915050565b600060208284031215613b2057613b1f613aa2565b5b6000613b2e84828501613af5565b91505092915050565b6000819050919050565b613b4a81613b37565b82525050565b6000602082019050613b656000830184613b41565b92915050565b613b7481613b37565b8114613b7f57600080fd5b50565b600081359050613b9181613b6b565b92915050565b600060208284031215613bad57613bac613aa2565b5b6000613bbb84828501613b82565b91505092915050565b60008115159050919050565b613bd981613bc4565b82525050565b6000602082019050613bf46000830184613bd0565b92915050565b6000819050919050565b613c0d81613bfa565b8114613c1857600080fd5b50565b600081359050613c2a81613c04565b92915050565b600080fd5b600080fd5b600080fd5b60008083601f840112613c5557613c54613c30565b5b8235905067ffffffffffffffff811115613c7257613c71613c35565b5b602083019150836001820283011115613c8e57613c8d613c3a565b5b9250929050565b600080600060408486031215613cae57613cad613aa2565b5b6000613cbc86828701613c1b565b935050602084013567ffffffffffffffff811115613cdd57613cdc613aa7565b5b613ce986828701613c3f565b92509250509250925092565b613cfe81613acc565b82525050565b6000602082019050613d196000830184613cf5565b92915050565b613d2881613bc4565b8114613d3357600080fd5b50565b600081359050613d4581613d1f565b92915050565b600060208284031215613d6157613d60613aa2565b5b6000613d6f84828501613d36565b91505092915050565b600060208284031215613d8e57613d8d613aa2565b5b6000613d9c84828501613c1b565b91505092915050565b7f4e487b7100000000000000000000000000000000000000000000000000000000600052602160045260246000fd5b60058110613de557613de4613da5565b5b50565b6000819050613df682613dd4565b919050565b6000613e0682613de8565b9050919050565b613e1681613dfb565b82525050565b6000602082019050613e316000830184613e0d565b92915050565b6000819050919050565b6000613e5c613e57613e5284613aac565b613e37565b613aac565b9050919050565b6000613e6e82613e41565b9050919050565b6000613e8082613e63565b9050919050565b613e9081613e75565b82525050565b6000602082019050613eab6000830184613e87565b92915050565b6000613ebc82613aac565b9050919050565b613ecc81613eb1565b8114613ed757600080fd5b50565b600081359050613ee981613ec3565b92915050565b600080600060608486031215613f0857613f07613aa2565b5b6000613f1686828701613af5565b9350506020613f2786828701613c1b565b9250506040613f3886828701613eda565b9150509250925092565b600082825260208201905092915050565b7f6d73672e76616c7565203c204d494e5f42455400000000000000000000000000600082015250565b6000613f89601383613f42565b9150613f9482613f53565b602082019050919050565b60006020820190508181036000830152613fb881613f7c565b9050919050565b7f4e487b7100000000000000000000000000000000000000000000000000000000600052601160045260246000fd5b6000613ff982613b37565b915061400483613b37565b925082820261401281613b37565b9150828204841483151761402957614028613fbf565b5b5092915050565b7f5f6e756d626572426574206973203e2033360000000000000000000000000000600082015250565b6000614066601283613f42565b915061407182614030565b602082019050919050565b6000602082019050818103600083015261409581614059565b9050919050565b7f6d73672e76616c7565203d3d2030000000000000000000000000000000000000600082015250565b60006140d2600e83613f42565b91506140dd8261409c565b602082019050919050565b60006020820190508181036000830152614101816140c5565b9050919050565b600081905092915050565b50565b6000614123600083614108565b915061412e82614113565b600082019050919050565b600061414482614116565b9150819050919050565b7f5f6f6e655468697264426574206e6f742031206f722032206f72203300000000600082015250565b6000614184601c83613f42565b915061418f8261414e565b602082019050919050565b600060208201905081810360008301526141b381614177565b9050919050565b7f43616c6c6572206e6f74204169726e6f64652052525000000000000000000000600082015250565b60006141f0601683613f42565b91506141fb826141ba565b602082019050919050565b6000602082019050818103600083015261421f816141e3565b9050919050565b7f556e657870656374656420526571756573742049440000000000000000000000600082015250565b600061425c601583613f42565b915061426782614226565b602082019050919050565b6000602082019050818103600083015261428b8161424f565b9050919050565b7f5f68616c66426574206e6f742031206f72203200000000000000000000000000600082015250565b60006142c8601383613f42565b91506142d382614292565b602082019050919050565b600060208201905081810360008301526142f7816142bb565b9050919050565b7f6d73672e73656e646572206e6f74206465706c6f796572000000000000000000600082015250565b6000614334601783613f42565b915061433f826142fe565b602082019050919050565b6000602082019050818103600083015261436381614327565b9050919050565b7f7370696e20616c726561647920636f6d706c6574650000000000000000000000600082015250565b60006143a0601583613f42565b91506143ab8261436a565b602082019050919050565b600060208201905081810360008301526143cf81614393565b9050919050565b7f213d206d73672e73656e646572207370696e436f756e74000000000000000000600082015250565b600061440c601783613f42565b9150614417826143d6565b602082019050919050565b6000602082019050818103600083015261443b816143ff565b9050919050565b61444b81613bfa565b82525050565b600061445c82613e63565b9050919050565b61446c81614451565b82525050565b60007fffffffff0000000000000000000000000000000000000000000000000000000082169050919050565b6144a781614472565b82525050565b600082825260208201905092915050565b60006144cb6000836144ad565b91506144d682614113565b600082019050919050565b600060e0820190506144f66000830189613cf5565b6145036020830188614442565b6145106040830187613cf5565b61451d6060830186614463565b61452a6080830185613cf5565b61453760a083018461449e565b81810360c0830152614548816144be565b9050979650505050505050565b60008151905061456481613c04565b92915050565b6000602082840312156145805761457f613aa2565b5b600061458e84828501614555565b91505092915050565b60006020820190506145ac6000830184614442565b92915050565b7f4e487b7100000000000000000000000000000000000000000000000000000000600052601260045260246000fd5b60006145ec82613b37565b91506145f783613b37565b925082614607576146066145b2565b5b828206905092915050565b600061461d82613b37565b915061462883613b37565b925082614638576146376145b2565b5b82820490509291505056fea2646970667358221220ef9e62929c935f47998a1769dd9d52ac7e44d9b7e0c8ea1262bb1bdaebd2ab3864736f6c63430008120033",
  "linkReferences": {},
  "deployedLinkReferences": {}
}